:020000040800F2
:10000000080400200101000879070008E90200083F
:100010007507000897010008D109000800000000DA
:100020000000000000000000000000007908000847
:10003000E5020008000000007B0700087B080008BC
:100040001B0100081B0100081B0100081B01000820
:100050001B0100081B0100081B0100081B01000810
:100060001B0100081B0100081B0100081B01000800
:100070001B0100081B0100081B0100081B010008F0
:100080001B0100081B0100081B0100081B010008E0
:100090001B0100081B0100081B0100081B010008D0
:1000A0001B0100081B0100081B0100081B010008C0
:1000B0001B0100081B0100081B0100081B010008B0
:1000C0001B0100081B0100081B0100081B010008A0
:1000D0001B0100081B0100081B0100081B01000890
:1000E0001B0100081B0100081B010008DFF80CD0F1
:1000F00000F02AF800480047F5090008080400202D
:100100000648804706480047FEE7FEE7FEE7FEE7B1
:10011000FEE7FEE7FEE7FEE7FEE7FEE779090008F7
:10012000ED000008D2B201E000F8012B491EFBD21D
:1001300070470022F6E710B513460A4604461946F2
:10014000FFF7F0FF204610BD064C074D06E0E068C3
:1001500040F0010394E8070098471034AC42F6D30E
:10016000FFF7C8FFC00A0008E00A000810B51368CE
:100170009B6803F400535BB10378012B0AD0012381
:1001800003700B68DB6883F020030C68E36001E018
:100190000023037010BD00BFFEE70000F0B5016052
:1001A000027143714FF484354D1BC5F387244C4DC8
:1001B000AD69A61C0127B7403D43494EB56105799D
:1001C000082D08DA05682D6897000326BE40B54360
:1001D0000668356007E005686D6897000326BE4035
:1001E000B543066875604579ADB90579082D09DA1A
:1001F00005682D689600B61C0127B7403D43066888
:10020000356008E005686D689600B61C0127B740A8
:100210003D43066875604579012D2ED10579082D7D
:1002200012DA05682D689600B61C0327B740BD4357
:100230000668356005682D689600B61C0227B74031
:100240003D430668356011E005686D689600B61C90
:100250000327B740BD430668756005686D68960062
:10026000B61C0227B7403D43066875600568EE6816
:1002700001259540AE430568EE604579022D2ED1EB
:100280000579082D12DA05682D689600B61C03273B
:10029000B740BD430668356005682D689600B61CFA
:1002A0000227B7403D430668356011E005686D6878
:1002B0009600B61C0327B740BD4306687560056805
:1002C0006D689600B61C0227B7403D43066875600E
:1002D0000568EE68012595402E430568EE60F0BD87
:1002E000001002407047704700BFFEE708B505499F
:1002F00089690143034A916111468969014000916E
:1003000000BF08BD001002402DE9F04102460B4637
:100310001868C0F30F2595FAA5F0B0FA80F47CE0D8
:100320000120A0402840002876D0082C04D240F2BA
:10033000011000FA04F106E0A4F108004FF00116E4
:10034000864046F08061586802EB116691FAA1FC84
:10035000BCFA8CFC4FEA8C084FF00F0C0CFA08FC2E
:10036000376827EA0C0791FAA1FCBCFA8CFC4FEA2B
:100370008C0C00FA0CFC47EA0C07376000BF1869C8
:10038000D66826EA11260F0A97FAA7F7B7FA87F771
:1003900000FA07F73E43D66000BF5868012802D034
:1003A0005868092838D1986802EB116691FAA1FCC7
:1003B000BCFA8CFC4FEA8C084FF0030C0CFA08FCDA
:1003C000376827EA0C0791FAA1FCBCFA8CFC4FEACB
:1003D0008C0C00FA0CFC47EA0C07376000BFD868A9
:1003E00002EB116691FAA1FCBCFA8CFC4FEA8C0876
:1003F0004FF0040C0CFA08FC376827EA0C0791FA56
:10040000A1FCBCFA8CFC4FEA8C0C00FA0CFC47EA0D
:100410000C07376000BF00BF641C25FA04F00028F9
:100420007FF47EAFBDE8F0814FF47A71B0FBF1F25A
:10043000521E4FF0E0235A6100229A6105221A6190
:1004400000BF704710B5044600F0CCF9206020686A
:1004500000F094F96060606800F0A0F9A060606846
:1004600000F0AEF9E06010BD01490860704700007F
:10047000040000202DE9FF4104460D460127002617
:10048000204600F041F8002833D1E9686868084345
:1004900029690843E16841F20C6291430843E06036
:1004A000A868216921F440510143216100BF6869B6
:1004B000616921F440710143616100BF6846FFF743
:1004C000C1FF0E48844201D1039E08E00C488442DB
:1004D00001D1029E03E00B48844200D1029E46B146
:1004E000286830B10027314620462A6800F011F80C
:1004F00000BF384604B0BDE8F0810000003801407C
:1005000000440040004800400146C868C0F3403045
:10051000704770B501EBC10303EB01139400B3FB0B
:10052000F4F301EBC10404EB01149500B4FBF5F402
:100530006425B4FBF5F404EBC40505EB0414A3EB4C
:100540008403322404EB03136424B3FBF4F303F0B9
:10055000F00301EBC10404EB01149500B4FBF5F4C6
:100560006425B4FBF5F403EB041401EBC10303EBC6
:1005700001139500B3FBF5F301EBC10505EB011584
:100580009600B5FBF6F56426B5FBF6F505EBC5065A
:1005900006EB0515A3EB8503322505EB0313642554
:1005A000B3FBF5F303F00F0323449BB2836070BDEC
:1005B00070B501600271A1F58424C4F387231F4C38
:1005C000A4699D1C0126AE4034431C4DAC610479E6
:1005D000082C19DA046824689500AD1C0326AE4087
:1005E000B44305682C600468246896000325B54070
:1005F000AC4305682C600468246896000125B5406A
:100600002C4305682C6018E0046864689500AD1CF4
:100610000326AE40B44305686C60046864689600C5
:100620000325B540AC4305686C60046864689600B7
:100630000125B5402C4305686C6070BD0010024078
:1006400000B585B014216846FFF773FD1020FFF751
:100650004DFE2020FFF74AFE0420FFF747FE08204A
:10066000FFF744FE42F22000010A0D4A516100BF2B
:100670000C4800900420019069460B48FFF744FEA7
:1006800042F2200000900120019002200290002000
:10069000039069460248FFF737FE05B000BD000031
:1006A00000080140200020040010014000B58DB07A
:1006B0001C2106A8FFF73DFD142101A8FFF739FD15
:1006C0004FF400302849C9690143274AD1611146D6
:1006D000C9690140009100BF00BF0420114689692B
:1006E00001439161114689690140009100BF00BF3B
:1006F00040F2044001900920029002200390002063
:10070000049001A91948FFF7FFFD40F60800019089
:100710000920029001A91548FFF7F6FD4FF4E130DA
:10072000069000200790089009900C200A90002065
:100730000B900C9006A90E48FFF79CFE00BF0C48DA
:10074000006920F490400A4908610846406920F099
:100750002A00486100BF00BF0846C06840F400504E
:10076000C86000BF0DB000BD00100240000801408D
:100770000044004000BFFEE770477047014600BFDD
:100780000448406800F0F0000009034A125C21FAB6
:1007900002F0704700100240A80A0008014600BF9E
:1007A0000548406800F4E060044A02EB102002783B
:1007B00021FA02F07047000000100240B80A000859
:1007C000014600BF0548406800F46050044A02EB4F
:1007D000D020027821FA02F0704700000010024099
:1007E000B80A000810B5002400BF0B48406800F0AC
:1007F0000C0020B1042804D0082808D103E0074CDD
:1008000007E0064C05E000F00BF8044601E0034C5D
:1008100000BF00BF204610BD0010024000127A0049
:100820000021002200BF1148406800F480300246D9
:100830001AB1B2F5803F0CD101E00D490BE000BFC9
:100840000A484068C0F34040401C0A4BB3FBF0F13B
:1008500001E0074900BF00BF00BF0448406800F442
:100860007010022303EB9040484370470010024091
:1008700000093D0000127A007047704710B5002053
:100880003A49096821F007010143384A116000BF65
:1008900000BF1046006800F0070008B1FFF723FD15
:1008A00010203349096821F0F80141EAC001304ABB
:1008B000116000BF00BF1046006840F00100114603
:1008C000086000BF00BF00BF29480068C0F34000B7
:1008D0000028F8D000204FF40021254A526822F465
:1008E0007C120A43224B5A6000BF00BF18460068C2
:1008F00040F080701946086000BF00BF00BF1C4870
:100900000068C0F340600028F8D00020184949680A
:1009100021F0F0010143164A516000BF1015114645
:10092000496821F4E0610143516000BF0020114695
:10093000496821F460510143516000BF0220114613
:10094000496821F003010143516000BF00BF00BFAF
:100950000748406800F00C000828F8D10548FFF768
:1009600063FD0448FFF780FD10BD00000020024039
:10097000001002400024F4001148006840F001001B
:100980000F490860084640680E4908400C49486015
:10099000084600680C490840094908600846006894
:1009A00020F4802008600846406820F4FE0048607B
:1009B0004FF41F008860C8030449086070470000B6
:1009C000001002400000FFF8FFFFF6FE08ED00E017
:1009D00000BFFEE702E008C8121F08C1002AFAD1D2
:1009E00070477047002001E001C1121F002AFBD1AF
:1009F0007047000086B00120244989690143234AD9
:100A00009161114689690140019100BF00BF000753
:100A10001146C9690143D1611146C969014001917B
:100A200000BF00BF03200246194B19684FF6FF03B1
:100A30001940184B0B4343EA0221154B196000BFC4
:100A400000BF1548406820F0E06013494860084640
:100A5000406840F00070486000BFFFF70FFFFFF7ED
:100A6000EFFDFFF723FE05220C4904A8FFF7A0FDC8
:100A700000230D220A4902A8FFF790FB04E002AA16
:100A800004A90848FFF772FBF9E7000000100240D4
:100A90000CED00E00000FA050000014000080140F4
:100AA00000100140000000200000000000000000D5
:100AB0000102030406070809000000000102030404
:100AC000E00A00080000002008000000D409000827
:100AD000E80A00080800002000040000E4090008FB
:080AE000000000000024F400F6
:04000005080000ED02
:00000001FF
