:020000040800F2
:100000001804002001010008710E00081B0A0008F6
:100010006D0E000859090008D1100008000000000A
:10002000000000000000000000000000730F000846
:100030005D09000800000000730E0008750F00083D
:100040001B0100081B0100081B0100081B01000820
:100050001B0100081B0100081B0100081B01000810
:100060001B0100081B0100081B0100081B01000800
:100070001B0100081B0100081B0100081B010008F0
:100080001B0100081B0100081B0100081B010008E0
:100090001B0100081B0100081B0100081B010008D0
:1000A0001B0100081B0100081B0100081B010008C0
:1000B0001B0100081B0100081B0100081B010008B0
:1000C0001B0100081B0100081B0100081B010008A0
:1000D0001B0100081B0100081B0100081B01000890
:1000E0001B0100081B0100081B010008DFF80CD0F1
:1000F00000F0B8F900480047C111000818040020BA
:100100000648804706480047FEE7FEE7FEE7FEE7B1
:10011000FEE7FEE7FEE7FEE7FEE7FEE775100008F4
:10012000ED000008D2B201E000F8012B491EFBD21D
:1001300070470022F6E710B513460A4604461946F2
:10014000FFF7F0FF204610BD0FB400B589B00BA833
:1001500000906A4603480A9900F01CF909B05DF85E
:1001600014FB0000100000202DE9FF5FD2E901A779
:100170004FF00008916999461446DDF838B04646BC
:1001800001988847054659EA0B0005D009E0A169A6
:10019000761C019888470546216A2846884700282A
:1001A000F5D1681C03D05FEACA7005D015E04FF0A6
:1001B000FF3004B0BDE8F09F2068011D2160D0F839
:1001C00000800AE05FEACA7001D108F8015BA1690A
:1001D000761C7F1E019888470546002F1ADD681C93
:1001E00018D0B9F1000F0DD0E81705EBD06042111F
:1001F00020F01F0059F822102A1A012090400142D5
:10020000E0D107E0BBF1000FDCD1216A2846884726
:100210000028D7D0E16901988847BBF1000F07D1CA
:10022000002E05DD5FEACA7002D1002188F80010B7
:10023000A068B84203DDBBF1000F03D017B16FF027
:100240000100B6E73046B4E72DE9F04D81EA03043A
:1002500004F0004B21F0004514464FF0000A23F053
:10026000004150EA050220D054EA01021DD0C5F336
:100270000A570246C5F31303C1F31300C1F30A562C
:1002800040F4801543F48013A7EB0608101BD646F4
:1002900008F2FD3873EB050002D308F1010801E014
:1002A00092185B41B8F1000F03DA00200146BDE867
:1002B000F08D00204FF48011064684460EE0171B97
:1002C00073EB050705D3121B63EB050306434CEAEA
:1002D000010C49084FEA300092185B4150EA0107CF
:1002E000EDD152EA030012D082EA040083EA05014C
:1002F000084305D0101BAB4106D20122002306E0C3
:1003000000224FF0004302E06FF0010253101AEB9D
:1003100006004CEB085110EB0A0041EB0B01BDE865
:10032000F04D00F041B80EB540F23341029100218A
:10033000CDE900110A460B4600F045F803B000BDB8
:10034000C1F30A5210B5C1F3130140F2FF3341F477
:1003500080119A4201DA002010BD40F233439A42E4
:10036000A2F2334203DC524200F003F810BD904089
:1003700010BD202A04DB203A21FA02F00021704748
:1003800021FA02F3D040C2F12002914008431946FD
:1003900070470000024B9361024BD36100F08AB8B2
:1003A00059110008E510000810B5141E73F100047F
:1003B00008DA401C41F1000192185B411A4301D157
:1003C00020F0010010BD2DE9F04D92469B4611B181
:1003D000B1FA81F202E0B0FA80F22032904600F0E9
:1003E00053F804460F4640EA0A0041EA0B0153461F
:1003F0005A46084313D0114653EA010019D0C8F1F8
:1004000040025046FFF7B5FF05460E465046594696
:10041000424600F039F8084305D0012004E02046A8
:100420003946BDE8F08D0020054346EAE0762C43CE
:1004300037430A986305E40AA0EB08000022FD0A8E
:1004400044EA47540A3002D500200146E9E7010595
:1004500010196941DDE9084500196941BDE8F04D11
:10046000A2E70000064C074D06E0E06840F00103FB
:1004700094E8070098471034AC42F6D3FFF73AFEF1
:10048000E812000808130008202A04DB203A00FACA
:1004900002F1002070479140C2F1200320FA03F3DB
:1004A00019439040704700000268114413780160BE
:1004B00018467047D1600449516104491162002116
:1004C0001161114600F00AB8A9040008D10400081F
:1004D000C0B24FF4F05100F097B900002DE9F34F8E
:1004E0008BB04FF0000801F10C000C464FF0010BEF
:1004F00046460DF1080A0190626901210198904772
:10050000051E2DD0252D2CD0216A8847C0B16269E7
:10051000012101989047216A88470028F7D1411EA0
:1005200062690198904700E0761CA1690B988847A2
:10053000216A88470028F7D1E1690B988847DBE7F3
:10054000A1690B9888470746A84201D1761CD3E7DA
:10055000E1690B9888477F1C02D1B8F1000F6FD07A
:1005600046E1002762693D463946019890472A28AE
:1005700004D162690121019890470125DFF8849236
:100580006269012101989047A0F130010A290AD23D
:100590004F45E5DC07EB870100EB4107303FDFD437
:1005A00045F01005ECE7E90601D46FF000476C2830
:1005B0000AD04C2814D0682815D06A280DD0742889
:1005C0001CD07A281AD01DE0626901210198904759
:1005D0006C2802D045F0040514E045F002050DE05A
:1005E00045F020050AE062690121019890476828DA
:1005F00002D045F0080505E045F400656269012177
:1006000001989047C4E9015765283DD019DC582866
:100610007AD00CDC452837D004DC252826D04128A8
:1006200031D131E046282FD047282CD12CE05B284F
:1006300077D0612828D063287CD0642823D15AE061
:10064000D0E06F2848D008DC66281DD067281BD072
:10065000692821D06E2816D127E0702845D073284C
:1006600068D0752847D078280DD14DE0A1690B9846
:100670008847054625283FF469AFE1690B9888470C
:100680006D1C3FF46AAFB3E023466A466FF0010089
:100690000B99AFF300809EE045F040006060A80732
:1006A00023464FF0000236D43EE0E8077FF447AF20
:1006B0002068011D21600068290501D506701BE72F
:1006C000290701D5068017E7A90703D5F117C0E967
:1006D000006111E706600FE745F040006060A80781
:1006E00023464FF0080216D41EE040F60E0125EA1C
:1006F0000100606016E045F040006060A8072346F6
:100700004FF00A0207D40FE045F040006060A807F0
:1007100008D5234610226FF001000B99AFF300803B
:1007200059E007E0234610226FF001000B99AFF368
:10073000008050E04FF000094F464B46632802D03E
:100740005B2806D040E0E80601D40120A060012724
:100750003AE062690121019890475E2805D14FF087
:1007600001096269494601989047216939B9002118
:100770000A46534643F82120491C0829FADBB0B346
:10078000216969B9C11700EBD16253110AEB8301EA
:1007900022F01F02821A01200B68904003430B6075
:1007A00062690121019890475D28E8D1B9F1000FF5
:1007B00009D00020514651F82020D24341F8202092
:1007C000401C0828F7DB02AB224600976FF00100BF
:1007D0000B99FFF7C9FC00280CDA401C08D1BBF1CB
:1007E000000F05D04FF0FF300DB0BDE8F08FFFE7F0
:1007F0004046F9E7E90701D108F1010806444FF046
:10080000000B79E6CCCCCC0C7F2801D9002208E083
:10081000064A02EB5002C007127800D1120902F01A
:100820000F0201209040084070470000A812000805
:100830002DE9FF5F434C444803904FF0010B01202A
:10084000029001264148806940F400603F49886178
:10085000216A0298401E01228240114321624FF01A
:1008600000094FF0060A022E0FDC701E042101EB76
:10087000800000F0FF09A069072101FA09F188430F
:100880000AFA09F10843A0610EE0F01E042101EB11
:10089000800000F0FF09A069072101FA09F18843EF
:1008A0000AFA09F10843A0619F20A0625846FFF7A9
:1008B0003AFD02460B46CDE9000100202449FFF72E
:1008C000C3FC0746FFF73CFDE062E06A00EB400036
:1008D00085B2012E06D0022E06D0032E06D0042E9D
:1008E00008D105E0656305E0A56303E0E56301E089
:1008F000256400BF00BF606C40F400406064206865
:1009000040F0010020601348006820F00C0040F027
:100910000800104908600846006820F00300401CE9
:1009200008600846006820F0C00040F080000860C1
:100930000846006820F0300040F010000860BDE874
:10094000FF9F0000002C01409A99993E0010024040
:10095000006AF8400408014000BFFEE7704700004D
:1009600008B5694613A0FFF7EFFB9DF800007A2851
:1009700004D111A000F0AEFBFFF75AFF9DF8000074
:10098000712804D112A000F0A5FB00F0A0FB9DF897
:100990000000732804D114A000F09CFB00F0E8FADA
:1009A0009DF80000642804D115A000F093FB00F02E
:1009B0008DFB08BD25630000566F75732061766559
:1009C0007A20656E7472E9203A207A0A00000000ED
:1009D000566F7573206176657A20656E7472E920B2
:1009E0003A20710A00000000566F75732061766529
:1009F0007A20656E7472E9203A20730A00000000C4
:100A0000566F7573206176657A20656E7472E92081
:100A10003A20640A00000000704700BFFEE70000B3
:100A20004FF0FF3005490968054A914204D0034957
:100A300008681146014A1160704700000400002058
:100A4000A55AA55A0A49096801F0010171B108497E
:100A50008039096801F0010141B100BF4FF06041E8
:100A600009680029FAD04FF060421070704700000A
:100A7000800E00E008B5054989690143034A916188
:100A8000114689690140009100BF08BD0010024075
:100A90002DE9F04102460B461868C0F30F2595FA80
:100AA000A5F0B0FA80F47CE00120A04028400028A6
:100AB00076D0082C04D240F2011000FA04F106E0CE
:100AC000A4F108004FF00116864046F08061586896
:100AD00002EB116691FAA1FCBCFA8CFC4FEA8C087F
:100AE0004FF00F0C0CFA08FC376827EA0C0791FA54
:100AF000A1FCBCFA8CFC4FEA8C0C00FA0CFC47EA17
:100B00000C07376000BF1869D66826EA11260F0A5D
:100B100097FAA7F7B7FA87F700FA07F73E43D660C8
:100B200000BF5868012802D05868092838D1986851
:100B300002EB116691FAA1FCBCFA8CFC4FEA8C081E
:100B40004FF0030C0CFA08FC376827EA0C0791FAFF
:100B5000A1FCBCFA8CFC4FEA8C0C00FA0CFC47EAB6
:100B60000C07376000BFD86802EB116691FAA1FC50
:100B7000BCFA8CFC4FEA8C084FF0040C0CFA08FC11
:100B8000376827EA0C0791FAA1FCBCFA8CFC4FEA03
:100B90008C0C00FA0CFC47EA0C07376000BF00BF62
:100BA000641C25FA04F000287FF47EAFBDE8F081D4
:100BB0004FF47A71B0FBF1F2521E4FF0E0235A610C
:100BC00000229A6105221A6100BF704710B50446E1
:100BD00000F084F92060206800F04CF960606068E3
:100BE00000F058F9A060606800F066F9E06010BDA0
:100BF0000149086070470000000000202DE9FF4116
:100C000004460D4601270026204600F041F8002842
:100C100033D1E9686868084329690843E16841F20B
:100C20000C6291430843E060A868216921F44051B7
:100C30000143216100BF6869616921F4407101438A
:100C4000616100BF6846FFF7C1FF0E48844201D1D1
:100C5000039E08E00C48844201D1029E03E00B4849
:100C6000844200D1029E46B1286830B10027314647
:100C700020462A6800F011F800BF384604B0BDE8ED
:100C8000F08100000038014000440040004800406E
:100C90000146C868C0F34030704770B501EBC1032E
:100CA00003EB01139400B3FBF4F301EBC10404EB79
:100CB00001149500B4FBF5F46425B4FBF5F404EBE2
:100CC000C40505EB0414A3EB8403322404EB0313E3
:100CD0006424B3FBF4F303F0F00301EBC10404EB71
:100CE00001149500B4FBF5F46425B4FBF5F403EBB3
:100CF000041401EBC10303EB01139500B3FBF5F3FF
:100D000001EBC10505EB01159600B5FBF6F5642670
:100D1000B5FBF6F505EBC50606EB0515A3EB85035C
:100D2000322505EB03136425B3FBF5F303F00F0342
:100D300023449BB2836070BD00B585B01421684622
:100D4000FFF7F7F91020FFF795FE2020FFF792FE3E
:100D50000420FFF78FFE0820FFF78CFE42F22000F0
:100D6000010A0D4A516100BF0C4800900420019017
:100D700069460B48FFF78CFE42F2200000900120EC
:100D80000190022002900020039069460248FFF77C
:100D90007FFE05B000BD00000008014020002004D7
:100DA0000010014000B58DB01C2106A8FFF7C1F965
:100DB000142101A8FFF7BDF94FF400302849C96993
:100DC0000143274AD1611146C9690140009100BF22
:100DD00000BF042011468969014391611146896968
:100DE0000140009100BF00BF40F204400190092083
:100DF0000290022003900020049001A91948FFF7F7
:100E000047FE40F6080001900920029001A915480C
:100E1000FFF73EFE4FF4E130069000200790089067
:100E200009900C200A9000200B900C9006A90E4807
:100E3000FFF7E4FE00BF0C48006920F490400A4927
:100E400008610846406920F02A00486100BF00BFE1
:100E50000846C06840F40050C86000BF0DB000BD37
:100E600000100240000801400044004000BFFEE7BF
:100E700070477047014600BF0448406800F0F0002A
:100E80000009034A125C21FA02F070470010024088
:100E900090120008014600BF0548406800F4E06079
:100EA000044A02EB1020027821FA02F07047000099
:100EB00000100240A0120008014600BF054840682B
:100EC00000F46050044A02EBD020027821FA02F0CC
:100ED0007047000000100240A012000810B5002466
:100EE00000BF0B48406800F00C0020B1042804D07B
:100EF000082808D103E0074C07E0064C05E000F0A5
:100F00000BF8044601E0034C00BF00BF204610BDB3
:100F10000010024000127A000021002200BF114898
:100F2000406800F4803002461AB1B2F5803F0CD11F
:100F300001E00D490BE000BF0A484068C0F34040A3
:100F4000401C0A4BB3FBF0F101E0074900BF00BFB2
:100F500000BF0448406800F47010022303EB904087
:100F6000484370470010024000093D0000127A001B
:100F7000704770477047000010B500203A49096873
:100F800021F007010143384A116000BF00BF10463D
:100F9000006800F0070008B1FFF73EFD102033495C
:100FA000096821F0F80141EAC001304A116000BF30
:100FB00000BF1046006840F001001146086000BF05
:100FC00000BF00BF29480068C0F340000028F8D0E7
:100FD00000204FF40021254A526822F47C120A4373
:100FE000224B5A6000BF00BF1846006840F0807076
:100FF0001946086000BF00BF00BF1C480068C0F36E
:1010000040600028F8D000201849496821F0F0011C
:101010000143164A516000BF10151146496821F47A
:10102000E0610143516000BF00201146496821F48E
:1010300060510143516000BF02201146496821F010
:1010400003010143516000BF00BF00BF0748406873
:1010500000F00C000828F8D10548FFF7A9FD044866
:10106000FFF7C6FD10BD0000002002400010024046
:101070000024F4001148006840F001000F490860A6
:10108000084640680E4908400C4948600846006818
:101090000C490840094908600846006820F480208F
:1010A00008600846406820F4FE0048604FF41F00C6
:1010B0008860C803044908607047000000100240BF
:1010C0000000FFF8FFFFF6FE08ED00E070477047F4
:1010D00000BFFEE7014A024900F02DB8A111000847
:1010E000140000200146094881420BD108480068DD
:1010F000401C20B10120074A1060002070474FF0CB
:10110000FF30FBE74FF0FF30F8E700001000002051
:101110000C0000200800002002E008C8121F08C1CF
:10112000002AFAD170477047002001E001C1121F68
:10113000002AFBD170472DE9F04116460F460446C0
:10114000002503E03946B047641C6D1C2078002858
:10115000F8D12846BDE8F08170B505460D488542B6
:1011600014D10D48006850B10C4804684FF0FF30AE
:101170000A490860002008490860204670BD00F058
:1011800079F80446054804602046F7E74FF0FF3041
:10119000F4E7000010000020080000200C000020F0
:1011A00070B505460C460548844203D1284600F038
:1011B00069F870BD4FF0FF30FBE70000140000201D
:1011C00008B501201E49896901431D4A91611146F4
:1011D00089690140009100BF00BF00071146C9693D
:1011E0000143D1611146C9690140009100BF00BFB0
:1011F00003200246134B19684FF6FF031940124BA8
:101200000B4343EA02210F4B196000BF00BF0F4898
:10121000406820F0E0600D4948600846406840F0B2
:101220000070486000BFFFF7A7FEFFF785FDFFF7DE
:10123000B9FD07A0FFF74EFF01E0FFF791FBFCE7C8
:10124000001002400CED00E00000FA050000014033
:10125000456E7472657A20756E6520646972656387
:1012600074696F6E2061766563205A515344203A49
:10127000200A000000B500BFFFF7D2FB411C002987
:10128000FAD000BD00B503461846FFF7DBFB00BDF2
:101290000000000000000000010203040607080926
:1012A0000000000001020304DDDDDDDDDCBBBBDD91
:1012B000DDDDDDDDDDDDDDDD9888888888888888F6
:1012C0007777777777888888855555566666666616
:1012D00066666666666888888333333222222222F5
:1012E000222222222228888D0813000800000020D4
:1012F0001800000018110008201300081800002032
:1013000000040000281100080024F400A55AA55A82
:1013100000000000FFFFFFFF0000000000000000D1
:04000005080000ED02
:00000001FF
